S01600005061726B696E675F73656E736F722E7372656349
S11300000C942A000C9447000C9447000C9413029F
S11300100C9447000C9447000C9447000C94470040
S11300200C9447000C9447000C9447000C94B801BE
S11300300C9447000C9447000C9447000C94470020
S11300400C9447000C9447000C9447000C94470010
S11300500C94470011241FBECFE5D8E0DEBFCDBF0E
S113006010E0A0E6B0E0E8ECF7E002C005900D92E5
S1130070A837B107D9F710E0A8E7B0E001C01D9296
S1130080AE37B107E1F70E946B020C94E2030C94C3
S11300900000D998982F92959F7090FF02C0DB9A28
S11300A001C0DB98982F92959695977090FF02C0A7
S11300B0DC9A01C0DC98982F92959695969593704A
S11300C090FF02C0DD9A01C0DD98882314F4DE9A03
S11300D001C0DE98DA9AEFE9FFE03197F1F700C04A
S11300E00000DA98EFE9FFE03197F1F700C0000073
S11300F080FF02C0DB9A01C0DB98982F969590FF91
S113010002C0DC9A01C0DC98982F9695969590FFD2
S113011002C0DD9A01C0DD9886958695869580FF9C
S113012002C0DE9A01C0DE98DA9A8FE99FE0019757
S1130130F1F700C00000DA98EFE9FFE03197F1F73A
S113014000C0000008958AB38E678ABB83E00E94D2
S113015049008FE79EE30197F1F700C0000083E0B8
S11301600E944900AFE7BEE31197F1F700C0000019
S113017083E00E9449008FE79EE30197F1F700C0F6
S1130180000082E00E94490088E20E94490088E061
S11301900E94490081E00E94490086E00E944900D3
S11301A08FEF99EFA0E081509040A040E1F700C0AC
S11301B000008CE00E9449000895D99A982F9295E6
S11301C09F7090FF02C0DB9A01C0DB98982F929534
S11301D09695977090FF02C0DC9A01C0DC98982F26
S11301E0929596959695937090FF02C0DD9A01C002
S11301F0DD98882314F4DE9A01C0DE98DA9AEFE9D8
S1130200FFE03197F1F700C00000DA98EFE9FFE072
S11302103197F1F700C0000080FF02C0DB9A01C0F3
S1130220DB98982F969590FF02C0DC9A01C0DC9869
S1130230982F9695969590FF02C0DD9A01C0DD989F
S113024086958695869580FF02C0DE9A01C0DE9869
S1130250DA9A8FE99FE00197F1F700C00000DA987D
S1130260EFE9FFE03197F1F700C0000008950F9324
S11302701F93CF938C01FC018081882351F0C0E04F
S11302800E94DD00CF5FF801EC0FF11D808188230F
S1130290B9F7CF911F910F9108958F929F92AF92CA
S11302A0BF92EF92FF921F93CF93DF93CDB7DEB748
S11302B02A970FB6F894DEBF0FBECDBFDC01CB0189
S11302C0AE014F5F5F4F2AE0FA0111922A95E9F7D8
S11302D00097A105B10521F480E30E94DD0038C038
S11302E010E00F2EFAE08F2EF0E09F2EF0E0AF2EFC
S11302F0F0E0BF2EF02DE12EFF24E7FCF09421E086
S113030030E02C0F3D1FE20EF31EBC01CD01A50110
S113031094010E94C003605DF7016083822F932FD4
S1130320A42FB52F1F5F0097A105B10521F7115028
S11303307AF0E12FFF27E7FDF09521E030E02C0F64
S11303403D1FE20FF31F80810E94DD00115088F7EA
S11303502A960FB6F894DEBF0FBECDBFDF91CF91C2
S11303601F91FF90EF90BF90AF909F908F90089552
S11303701F920F920FB60F9211248F9380917900E0
S11303808F5F809379008F910F900FBE0F901F9015
S1130390189512BE83B7846083BF83B7816083BF1F
S11303A08BB780628BBF089583B78B7F83BF83B77E
S11303B08E7F83BF089560917C0070917D0080E002
S11303C090E00E94CF0228E23EE74CE85CE30E9402
S11303D035030E94A3026A50704070937B006093BF
S11303E07A0081E00E94490080E690E00E94370193
S11303F060917A0070917B0080E090E00E944D0152
S11304008AE690E00E94370180917A0090917B0007
S11304108B30910538F480EC0E9449008DE690E021
S11304200E94370108951F920F920FB60F92112464
S11304302F933F934F935F936F937F938F939F93E8
S1130440AF93BF93EF93FF938BB78F7D8BBF62B74F
S113045070E080E090E00E94D10220E030E040E8CB
S113046054E40E94350320E030E040E85DE30E945C
S113047035030E94A3022091790030E086E69FE3D1
S1130480289FA001299F500D389F500D1124460F1D
S1130490571F50937D0040937C000E94D40110921A
S11304A079000E94DB01FF91EF91BF91AF919F9181
S11304B08F917F916F915F914F913F912F910F9009
S11304C00FBE0F901F901895AA9A85E38A95F1F7AD
S11304D00000AA98089584B78F7B84BF78940E9403
S11304E0A3000E949502A29AA59A0E94C9010E94A3
S11304F0640280917A0090917B000B9721E086380A
S1130500920708F4AD9880917A0090917B008B302B
S1130510910508F4AD9A8FEF94E3ACE081509040DC
S1130520A040E1F700C00000E0CF85E883BF89B7B1
S1130530816089BF08958DE883BF88EC8CBF89B73B
S1130540826089BF089570D088F09F5790F0B92FCA
S11305509927B751A0F0D1F0660F771F881F991F14
S11305601AF0BA95C9F712C0B13081F077D0B1E072
S1130570089574C0672F782F8827B85F39F0B93F82
S1130580CCF3869577956795B395D9F73EF4909516
S11305908095709561957F4F8F4F9F4F0895E89494
S11305A009C097FB3EF490958095709561957F4FB7
S11305B08F4F9F4F9923A9F0F92F96E9BB27939565
S11305C0F695879577956795B795F111F8CFFAF475
S11305D0BB0F11F460FF1BC06F5F7F4F8F4F9F4FA6
S11305E016C0882311F096E911C0772321F09EE804
S11305F0872F762F05C0662371F096E8862F70E06A
S113060060E02AF09A95660F771F881FDAF7880F43
S11306109695879597F9089557FD9058440F551F5F
S113062059F05F3F71F04795880F97FB991F61F070
S11306309F3F79F087950895121613061406551FE7
S1130640F2CF4695F1DF08C0161617061806991F53
S1130650F1CF86957105610508940895E894BB2748
S113066066277727CB0197F908950BD078C069D016
S113067028F06ED018F0952309F05AC05FC01124F9
S1130680EECFCADFA0F3959FD1F3950F50E0551F2D
S1130690629FF001729FBB27F00DB11D639FAA27D3
S11306A0F00DB11DAA1F649F6627B00DA11D661F22
S11306B0829F2227B00DA11D621F739FB00DA11D43
S11306C0621F839FA00D611D221F749F3327A00DFD
S11306D0611D231F849F600D211D822F762F6A2F99
S11306E011249F5750408AF0E1F088234AF0EE0F1E
S11306F0FF1FBB1F661F771F881F91505040A9F72B
S11307009E3F510570F014C0AACF5F3FECF3983EB2
S1130710DCF3869577956795B795F795E7959F5F91
S1130720C1F7FE2B880F911D9695879597F908952B
S113073097F99F6780E870E060E008959FEF80EC90
S1130740089500240A941616170618060906089533
S113075000240A9412161306140605060895092E99
S11307600394000C11F4882352F0BB0F40F4BF2B08
S113077011F460FF04C06F5F7F4F8F4F9F4F089548
S1130780A1E21A2EAA1BBB1BFD010DC0AA1FBB1F91
S1130790EE1FFF1FA217B307E407F50720F0A21B03
S11307A0B30BE40BF50B661F771F881F991F1A9470
S11307B069F760957095809590959B01AC01BD019A
S10B07C0CF010895F894FFCF66
S11307C864697374616E63653D00636D0044616EB2
S10B07D8676572212121000074
S9030000FC
